{
  "_format": "hh-sol-artifact-1",
  "contractName": "DEX",
  "sourceName": "contracts/Dex.sol",
  "abi": [
    {
      "inputs": [
        {
          "internalType": "address",
          "name": "token_addr",
          "type": "address"
        }
      ],
      "stateMutability": "nonpayable",
      "type": "constructor"
    },
    {
      "anonymous": false,
      "inputs": [
        {
          "indexed": false,
          "internalType": "address",
          "name": "swapper",
          "type": "address"
        },
        {
          "indexed": false,
          "internalType": "string",
          "name": "txDetails",
          "type": "string"
        },
        {
          "indexed": false,
          "internalType": "uint256",
          "name": "ethInput",
          "type": "uint256"
        },
        {
          "indexed": false,
          "internalType": "uint256",
          "name": "tokenOutput",
          "type": "uint256"
        }
      ],
      "name": "EthToTokenSwap",
      "type": "event"
    },
    {
      "anonymous": false,
      "inputs": [
        {
          "indexed": false,
          "internalType": "address",
          "name": "liquidityProvider",
          "type": "address"
        },
        {
          "indexed": false,
          "internalType": "uint256",
          "name": "tokensInput",
          "type": "uint256"
        },
        {
          "indexed": false,
          "internalType": "uint256",
          "name": "ethInput",
          "type": "uint256"
        },
        {
          "indexed": false,
          "internalType": "uint256",
          "name": "liquidityMinted",
          "type": "uint256"
        }
      ],
      "name": "LiquidityProvided",
      "type": "event"
    },
    {
      "anonymous": false,
      "inputs": [
        {
          "indexed": false,
          "internalType": "address",
          "name": "liquidityRemover",
          "type": "address"
        },
        {
          "indexed": false,
          "internalType": "uint256",
          "name": "tokensOutput",
          "type": "uint256"
        },
        {
          "indexed": false,
          "internalType": "uint256",
          "name": "ethOutput",
          "type": "uint256"
        },
        {
          "indexed": false,
          "internalType": "uint256",
          "name": "liquidityWithdrawn",
          "type": "uint256"
        }
      ],
      "name": "LiquidityRemoved",
      "type": "event"
    },
    {
      "anonymous": false,
      "inputs": [
        {
          "indexed": false,
          "internalType": "address",
          "name": "swapper",
          "type": "address"
        },
        {
          "indexed": false,
          "internalType": "string",
          "name": "txDetails",
          "type": "string"
        },
        {
          "indexed": false,
          "internalType": "uint256",
          "name": "tokensInput",
          "type": "uint256"
        },
        {
          "indexed": false,
          "internalType": "uint256",
          "name": "ethOutput",
          "type": "uint256"
        }
      ],
      "name": "TokenToEthSwap",
      "type": "event"
    },
    {
      "inputs": [],
      "name": "deposit",
      "outputs": [
        {
          "internalType": "uint256",
          "name": "tokensDeposited",
          "type": "uint256"
        }
      ],
      "stateMutability": "payable",
      "type": "function"
    },
    {
      "inputs": [],
      "name": "ethToToken",
      "outputs": [
        {
          "internalType": "uint256",
          "name": "tokenOutput",
          "type": "uint256"
        }
      ],
      "stateMutability": "payable",
      "type": "function"
    },
    {
      "inputs": [
        {
          "internalType": "address",
          "name": "lp",
          "type": "address"
        }
      ],
      "name": "getLiquidity",
      "outputs": [
        {
          "internalType": "uint256",
          "name": "",
          "type": "uint256"
        }
      ],
      "stateMutability": "view",
      "type": "function"
    },
    {
      "inputs": [
        {
          "internalType": "uint256",
          "name": "tokens",
          "type": "uint256"
        }
      ],
      "name": "init",
      "outputs": [
        {
          "internalType": "uint256",
          "name": "",
          "type": "uint256"
        }
      ],
      "stateMutability": "payable",
      "type": "function"
    },
    {
      "inputs": [
        {
          "internalType": "address",
          "name": "",
          "type": "address"
        }
      ],
      "name": "liquidity",
      "outputs": [
        {
          "internalType": "uint256",
          "name": "",
          "type": "uint256"
        }
      ],
      "stateMutability": "view",
      "type": "function"
    },
    {
      "inputs": [
        {
          "internalType": "uint256",
          "name": "xInput",
          "type": "uint256"
        },
        {
          "internalType": "uint256",
          "name": "xReserves",
          "type": "uint256"
        },
        {
          "internalType": "uint256",
          "name": "yReserves",
          "type": "uint256"
        }
      ],
      "name": "price",
      "outputs": [
        {
          "internalType": "uint256",
          "name": "yOutput",
          "type": "uint256"
        }
      ],
      "stateMutability": "pure",
      "type": "function"
    },
    {
      "inputs": [
        {
          "internalType": "uint256",
          "name": "tokenInput",
          "type": "uint256"
        }
      ],
      "name": "tokenToEth",
      "outputs": [
        {
          "internalType": "uint256",
          "name": "ethOutput",
          "type": "uint256"
        }
      ],
      "stateMutability": "nonpayable",
      "type": "function"
    },
    {
      "inputs": [],
      "name": "totalLiquidity",
      "outputs": [
        {
          "internalType": "uint256",
          "name": "",
          "type": "uint256"
        }
      ],
      "stateMutability": "view",
      "type": "function"
    },
    {
      "inputs": [
        {
          "internalType": "uint256",
          "name": "amount",
          "type": "uint256"
        }
      ],
      "name": "withdraw",
      "outputs": [
        {
          "internalType": "uint256",
          "name": "eth_amount",
          "type": "uint256"
        },
        {
          "internalType": "uint256",
          "name": "token_amount",
          "type": "uint256"
        }
      ],
      "stateMutability": "nonpayable",
      "type": "function"
    }
  ],
  "bytecode": "0x60806040523480156200001157600080fd5b5060405162001cbb38038062001cbb8339818101604052810190620000379190620000e8565b806000806101000a81548173ffffffffffffffffffffffffffffffffffffffff021916908373ffffffffffffffffffffffffffffffffffffffff160217905550506200011a565b600080fd5b600073ffffffffffffffffffffffffffffffffffffffff82169050919050565b6000620000b08262000083565b9050919050565b620000c281620000a3565b8114620000ce57600080fd5b50565b600081519050620000e281620000b7565b92915050565b6000602082840312156200010157620001006200007e565b5b60006200011184828501620000d1565b91505092915050565b611b91806200012a6000396000f3fe6080604052600436106100865760003560e01c8063789770f411610059578063789770f41461016e578063a747b93b1461018c578063b7b0422d146101c9578063b8c876b1146101f9578063d0e30db01461023657610086565b806315770f921461008b5780632071a9f4146100b65780632e1a7d4d146100f357806370b2a30f14610131575b600080fd5b34801561009757600080fd5b506100a0610254565b6040516100ad91906110e5565b60405180910390f35b3480156100c257600080fd5b506100dd60048036038101906100d89190611131565b61025a565b6040516100ea91906110e5565b60405180910390f35b3480156100ff57600080fd5b5061011a60048036038101906101159190611184565b6102ce565b6040516101289291906111b1565b60405180910390f35b34801561013d57600080fd5b5061015860048036038101906101539190611184565b6106ad565b60405161016591906110e5565b60405180910390f35b61017661098e565b60405161018391906110e5565b60405180910390f35b34801561019857600080fd5b506101b360048036038101906101ae9190611238565b610bd0565b6040516101c091906110e5565b60405180910390f35b6101e360048036038101906101de9190611184565b610c19565b6040516101f091906110e5565b60405180910390f35b34801561020557600080fd5b50610220600480360381019061021b9190611238565b610da4565b60405161022d91906110e5565b60405180910390f35b61023e610dbc565b60405161024b91906110e5565b60405180910390f35b60015481565b6000806102726103e58661108a90919063ffffffff16565b90506000610289848361108a90919063ffffffff16565b905060006102b4836102a66103e88961108a90919063ffffffff16565b6110a090919063ffffffff16565b905080826102c291906112c3565b93505050509392505050565b60008082600260003373ffffffffffffffffffffffffffffffffffffffff1673ffffffffffffffffffffffffffffffffffffffff168152602001908152602001600020541015610353576040517f08c379a000000000000000000000000000000000000000000000000000000000815260040161034a90611377565b60405180910390fd5b600047905060008060009054906101000a900473ffffffffffffffffffffffffffffffffffffffff1673ffffffffffffffffffffffffffffffffffffffff166370a08231306040518263ffffffff1660e01b81526004016103b491906113a6565b60206040518083038186803b1580156103cc57600080fd5b505afa1580156103e0573d6000803e3d6000fd5b505050506040513d601f19601f8201168201806040525081019061040491906113d6565b9050600060015461041e848861108a90919063ffffffff16565b61042891906112c3565b90506000600154610442848961108a90919063ffffffff16565b61044c91906112c3565b90506104a087600260003373ffffffffffffffffffffffffffffffffffffffff1673ffffffffffffffffffffffffffffffffffffffff168152602001908152602001600020546110b690919063ffffffff16565b600260003373ffffffffffffffffffffffffffffffffffffffff1673ffffffffffffffffffffffffffffffffffffffff168152602001908152602001600020819055506104f8876001546110b690919063ffffffff16565b60018190555060003373ffffffffffffffffffffffffffffffffffffffff168360405161052490611434565b60006040518083038185875af1925050503d8060008114610561576040519150601f19603f3d011682016040523d82523d6000602084013e610566565b606091505b50509050806105aa576040517f08c379a00000000000000000000000000000000000000000000000000000000081526004016105a1906114bb565b60405180910390fd5b60008054906101000a900473ffffffffffffffffffffffffffffffffffffffff1673ffffffffffffffffffffffffffffffffffffffff1663a9059cbb33846040518363ffffffff1660e01b81526004016106059291906114db565b602060405180830381600087803b15801561061f57600080fd5b505af1158015610633573d6000803e3d6000fd5b505050506040513d601f19601f82011682018060405250810190610657919061153c565b61066057600080fd5b7f1dc8bb69df2b8e91fbdcbfcf93d951b3f0000f085a95fe3f7946d6161439245d338985856040516106959493929190611569565b60405180910390a18282965096505050505050915091565b60008082116106f1576040517f08c379a00000000000000000000000000000000000000000000000000000000081526004016106e8906115fa565b60405180910390fd5b60008060009054906101000a900473ffffffffffffffffffffffffffffffffffffffff1673ffffffffffffffffffffffffffffffffffffffff166370a08231306040518263ffffffff1660e01b815260040161074d91906113a6565b60206040518083038186803b15801561076557600080fd5b505afa158015610779573d6000803e3d6000fd5b505050506040513d601f19601f8201168201806040525081019061079d91906113d6565b905060004790506107af84838361025a565b925060008054906101000a900473ffffffffffffffffffffffffffffffffffffffff1673ffffffffffffffffffffffffffffffffffffffff166323b872dd3330876040518463ffffffff1660e01b815260040161080e9392919061161a565b602060405180830381600087803b15801561082857600080fd5b505af115801561083c573d6000803e3d6000fd5b505050506040513d601f19601f82011682018060405250810190610860919061153c565b61089f576040517f08c379a00000000000000000000000000000000000000000000000000000000081526004016108969061169d565b60405180910390fd5b60003373ffffffffffffffffffffffffffffffffffffffff16846040516108c590611434565b60006040518083038185875af1925050503d8060008114610902576040519150601f19603f3d011682016040523d82523d6000602084013e610907565b606091505b505090508061094b576040517f08c379a00000000000000000000000000000000000000000000000000000000081526004016109429061172f565b60405180910390fd5b7f7536309ea3be068750ddab69b17222930264bf16637e5ccb83316b4b3d92674533858760405161097e9392919061179b565b60405180910390a1505050919050565b60008034116109d2576040517f08c379a00000000000000000000000000000000000000000000000000000000081526004016109c990611831565b60405180910390fd5b60006109e734476110b690919063ffffffff16565b905060008060009054906101000a900473ffffffffffffffffffffffffffffffffffffffff1673ffffffffffffffffffffffffffffffffffffffff166370a08231306040518263ffffffff1660e01b8152600401610a4591906113a6565b60206040518083038186803b158015610a5d57600080fd5b505afa158015610a71573d6000803e3d6000fd5b505050506040513d601f19601f82011682018060405250810190610a9591906113d6565b9050610aa234838361025a565b925060008054906101000a900473ffffffffffffffffffffffffffffffffffffffff1673ffffffffffffffffffffffffffffffffffffffff1663a9059cbb33856040518363ffffffff1660e01b8152600401610aff9291906114db565b602060405180830381600087803b158015610b1957600080fd5b505af1158015610b2d573d6000803e3d6000fd5b505050506040513d601f19601f82011682018060405250810190610b51919061153c565b610b90576040517f08c379a0000000000000000000000000000000000000000000000000000000008152600401610b879061189d565b60405180910390fd5b7f3358768c94c6d0c84dbfcedabf8e58d32d4c475f61b1b2600828bbc30dbf0162333485604051610bc393929190611909565b60405180910390a1505090565b6000600260008373ffffffffffffffffffffffffffffffffffffffff1673ffffffffffffffffffffffffffffffffffffffff168152602001908152602001600020549050919050565b60008060015414610c5f576040517f08c379a0000000000000000000000000000000000000000000000000000000008152600401610c56906119c5565b60405180910390fd5b47600181905550600154600260003373ffffffffffffffffffffffffffffffffffffffff1673ffffffffffffffffffffffffffffffffffffffff1681526020019081526020016000208190555060008054906101000a900473ffffffffffffffffffffffffffffffffffffffff1673ffffffffffffffffffffffffffffffffffffffff166323b872dd3330856040518463ffffffff1660e01b8152600401610d099392919061161a565b602060405180830381600087803b158015610d2357600080fd5b505af1158015610d37573d6000803e3d6000fd5b505050506040513d601f19601f82011682018060405250810190610d5b919061153c565b610d9a576040517f08c379a0000000000000000000000000000000000000000000000000000000008152600401610d9190611a57565b60405180910390fd5b6001549050919050565b60026020528060005260406000206000915090505481565b600080610dd234476110b690919063ffffffff16565b905060008060009054906101000a900473ffffffffffffffffffffffffffffffffffffffff1673ffffffffffffffffffffffffffffffffffffffff166370a08231306040518263ffffffff1660e01b8152600401610e3091906113a6565b60206040518083038186803b158015610e4857600080fd5b505afa158015610e5c573d6000803e3d6000fd5b505050506040513d601f19601f82011682018060405250810190610e8091906113d6565b90506000610eb5600184610e9d853461108a90919063ffffffff16565b610ea791906112c3565b6110a090919063ffffffff16565b9050600083610ecf6001543461108a90919063ffffffff16565b610ed991906112c3565b9050610f2d81600260003373ffffffffffffffffffffffffffffffffffffffff1673ffffffffffffffffffffffffffffffffffffffff168152602001908152602001600020546110a090919063ffffffff16565b600260003373ffffffffffffffffffffffffffffffffffffffff1673ffffffffffffffffffffffffffffffffffffffff16815260200190815260200160002081905550610f85816001546110a090919063ffffffff16565b60018190555060008054906101000a900473ffffffffffffffffffffffffffffffffffffffff1673ffffffffffffffffffffffffffffffffffffffff166323b872dd3330856040518463ffffffff1660e01b8152600401610fe89392919061161a565b602060405180830381600087803b15801561100257600080fd5b505af1158015611016573d6000803e3d6000fd5b505050506040513d601f19601f8201168201806040525081019061103a919061153c565b61104357600080fd5b7f3bca7014f4c0ccc8016338c79f4c00e82068dbadaf4f01ca5449040fdd39f500338234856040516110789493929190611569565b60405180910390a18194505050505090565b600081836110989190611a77565b905092915050565b600081836110ae9190611ad1565b905092915050565b600081836110c49190611b27565b905092915050565b6000819050919050565b6110df816110cc565b82525050565b60006020820190506110fa60008301846110d6565b92915050565b600080fd5b61110e816110cc565b811461111957600080fd5b50565b60008135905061112b81611105565b92915050565b60008060006060848603121561114a57611149611100565b5b60006111588682870161111c565b93505060206111698682870161111c565b925050604061117a8682870161111c565b9150509250925092565b60006020828403121561119a57611199611100565b5b60006111a88482850161111c565b91505092915050565b60006040820190506111c660008301856110d6565b6111d360208301846110d6565b9392505050565b600073ffffffffffffffffffffffffffffffffffffffff82169050919050565b6000611205826111da565b9050919050565b611215816111fa565b811461122057600080fd5b50565b6000813590506112328161120c565b92915050565b60006020828403121561124e5761124d611100565b5b600061125c84828501611223565b91505092915050565b7f4e487b7100000000000000000000000000000000000000000000000000000000600052601260045260246000fd5b7f4e487b7100000000000000000000000000000000000000000000000000000000600052601160045260246000fd5b60006112ce826110cc565b91506112d9836110cc565b9250826112e9576112e8611265565b5b828204905092915050565b600082825260208201905092915050565b7f77697468647261773a2073656e64657220646f6573206e6f742068617665206560008201527f6e6f756768206c697175696469747920746f2077697468647261772e00000000602082015250565b6000611361603c836112f4565b915061136c82611305565b604082019050919050565b6000602082019050818103600083015261139081611354565b9050919050565b6113a0816111fa565b82525050565b60006020820190506113bb6000830184611397565b92915050565b6000815190506113d081611105565b92915050565b6000602082840312156113ec576113eb611100565b5b60006113fa848285016113c1565b91505092915050565b600081905092915050565b50565b600061141e600083611403565b91506114298261140e565b600082019050919050565b600061143f82611411565b9150819050919050565b7f776974686472617728293a2072657665727420696e207472616e73666572726960008201527f6e672065746820746f20796f7521000000000000000000000000000000000000602082015250565b60006114a5602e836112f4565b91506114b082611449565b604082019050919050565b600060208201905081810360008301526114d481611498565b9050919050565b60006040820190506114f06000830185611397565b6114fd60208301846110d6565b9392505050565b60008115159050919050565b61151981611504565b811461152457600080fd5b50565b60008151905061153681611510565b92915050565b60006020828403121561155257611551611100565b5b600061156084828501611527565b91505092915050565b600060808201905061157e6000830187611397565b61158b60208301866110d6565b61159860408301856110d6565b6115a560608301846110d6565b95945050505050565b7f63616e6e6f742073776170203020746f6b656e73000000000000000000000000600082015250565b60006115e46014836112f4565b91506115ef826115ae565b602082019050919050565b60006020820190508181036000830152611613816115d7565b9050919050565b600060608201905061162f6000830186611397565b61163c6020830185611397565b61164960408301846110d6565b949350505050565b7f746f6b656e546f45746828293a20726576657274656420737761702e00000000600082015250565b6000611687601c836112f4565b915061169282611651565b602082019050919050565b600060208201905081810360008301526116b68161167a565b9050919050565b7f746f6b656e546f4574683a2072657665727420696e207472616e73666572726960008201527f6e672065746820746f20796f7521000000000000000000000000000000000000602082015250565b6000611719602e836112f4565b9150611724826116bd565b604082019050919050565b600060208201905081810360008301526117488161170c565b9050919050565b7f4d79546f6b656e20746f20455448000000000000000000000000000000000000600082015250565b6000611785600e836112f4565b91506117908261174f565b602082019050919050565b60006080820190506117b06000830186611397565b81810360208301526117c181611778565b90506117d060408301856110d6565b6117dd60608301846110d6565b949350505050565b7f63616e6e6f742073776170203020455448000000000000000000000000000000600082015250565b600061181b6011836112f4565b9150611826826117e5565b602082019050919050565b6000602082019050818103600083015261184a8161180e565b9050919050565b7f657468546f546f6b656e28293a20726576657274656420737761702e00000000600082015250565b6000611887601c836112f4565b915061189282611851565b602082019050919050565b600060208201905081810360008301526118b68161187a565b9050919050565b7f45746820746f204d79546f6b656e000000000000000000000000000000000000600082015250565b60006118f3600e836112f4565b91506118fe826118bd565b602082019050919050565b600060808201905061191e6000830186611397565b818103602083015261192f816118e6565b905061193e60408301856110d6565b61194b60608301846110d6565b949350505050565b7f4445583a20696e6974202d20616c726561647920686173206c6971756964697460008201527f7900000000000000000000000000000000000000000000000000000000000000602082015250565b60006119af6021836112f4565b91506119ba82611953565b604082019050919050565b600060208201905081810360008301526119de816119a2565b9050919050565b7f4445583a20696e6974202d207472616e7366657220646964206e6f742074726160008201527f6e73616374000000000000000000000000000000000000000000000000000000602082015250565b6000611a416025836112f4565b9150611a4c826119e5565b604082019050919050565b60006020820190508181036000830152611a7081611a34565b9050919050565b6000611a82826110cc565b9150611a8d836110cc565b9250817fffffffffffffffffffffffffffffffffffffffffffffffffffffffffffffffff0483118215151615611ac657611ac5611294565b5b828202905092915050565b6000611adc826110cc565b9150611ae7836110cc565b9250827fffffffffffffffffffffffffffffffffffffffffffffffffffffffffffffffff03821115611b1c57611b1b611294565b5b828201905092915050565b6000611b32826110cc565b9150611b3d836110cc565b925082821015611b5057611b4f611294565b5b82820390509291505056fea26469706673582212205c543b22aad5efc9dd81a129c9bb64be7e72c9deca1321b80cf0374998dae57e64736f6c63430008090033",
  "linkReferences": {},
  "deployedLinkReferences": {}
}